{
  "contractName": "modifiedVotingSystem",
  "abi": [
    {
      "inputs": [
        {
          "internalType": "uint256",
          "name": "",
          "type": "uint256"
        }
      ],
      "name": "alreadyVoted",
      "outputs": [
        {
          "internalType": "string",
          "name": "",
          "type": "string"
        }
      ],
      "stateMutability": "view",
      "type": "function",
      "constant": true
    },
    {
      "inputs": [
        {
          "internalType": "uint256",
          "name": "",
          "type": "uint256"
        }
      ],
      "name": "candidateDetails",
      "outputs": [
        {
          "internalType": "string",
          "name": "name",
          "type": "string"
        },
        {
          "internalType": "string",
          "name": "party",
          "type": "string"
        },
        {
          "internalType": "uint256",
          "name": "voteCount",
          "type": "uint256"
        },
        {
          "internalType": "uint256",
          "name": "candidateId",
          "type": "uint256"
        }
      ],
      "stateMutability": "view",
      "type": "function",
      "constant": true
    },
    {
      "inputs": [],
      "name": "owner",
      "outputs": [
        {
          "internalType": "address",
          "name": "",
          "type": "address"
        }
      ],
      "stateMutability": "view",
      "type": "function",
      "constant": true
    },
    {
      "inputs": [
        {
          "internalType": "uint256",
          "name": "",
          "type": "uint256"
        }
      ],
      "name": "voteCount",
      "outputs": [
        {
          "internalType": "string",
          "name": "",
          "type": "string"
        }
      ],
      "stateMutability": "view",
      "type": "function",
      "constant": true
    },
    {
      "inputs": [
        {
          "internalType": "address",
          "name": "",
          "type": "address"
        }
      ],
      "name": "voterDetails",
      "outputs": [
        {
          "internalType": "string",
          "name": "voterId",
          "type": "string"
        },
        {
          "internalType": "address",
          "name": "ethAddress",
          "type": "address"
        },
        {
          "internalType": "string",
          "name": "candidateVotedTo",
          "type": "string"
        },
        {
          "internalType": "bool",
          "name": "hasVoted",
          "type": "bool"
        },
        {
          "internalType": "bool",
          "name": "isVerified",
          "type": "bool"
        }
      ],
      "stateMutability": "view",
      "type": "function",
      "constant": true
    },
    {
      "inputs": [
        {
          "internalType": "uint256",
          "name": "",
          "type": "uint256"
        }
      ],
      "name": "voters",
      "outputs": [
        {
          "internalType": "address",
          "name": "",
          "type": "address"
        }
      ],
      "stateMutability": "view",
      "type": "function",
      "constant": true
    },
    {
      "inputs": [],
      "name": "VotingSystem",
      "outputs": [],
      "stateMutability": "nonpayable",
      "type": "function"
    },
    {
      "inputs": [],
      "name": "getOwner",
      "outputs": [
        {
          "internalType": "address",
          "name": "",
          "type": "address"
        }
      ],
      "stateMutability": "view",
      "type": "function",
      "constant": true
    },
    {
      "inputs": [
        {
          "internalType": "string",
          "name": "_name",
          "type": "string"
        },
        {
          "internalType": "string",
          "name": "_party",
          "type": "string"
        }
      ],
      "name": "addCandidate",
      "outputs": [],
      "stateMutability": "nonpayable",
      "type": "function"
    },
    {
      "inputs": [
        {
          "internalType": "uint256",
          "name": "candidateNo",
          "type": "uint256"
        }
      ],
      "name": "getCandidate",
      "outputs": [
        {
          "internalType": "uint256",
          "name": "",
          "type": "uint256"
        }
      ],
      "stateMutability": "view",
      "type": "function",
      "constant": true
    },
    {
      "inputs": [
        {
          "internalType": "string",
          "name": "_id",
          "type": "string"
        },
        {
          "internalType": "address",
          "name": "_ethAddress",
          "type": "address"
        },
        {
          "internalType": "string",
          "name": "_candidate",
          "type": "string"
        }
      ],
      "name": "requestVoter",
      "outputs": [],
      "stateMutability": "nonpayable",
      "type": "function"
    },
    {
      "inputs": [],
      "name": "getVoteCount",
      "outputs": [
        {
          "internalType": "string[]",
          "name": "",
          "type": "string[]"
        }
      ],
      "stateMutability": "view",
      "type": "function",
      "constant": true
    },
    {
      "inputs": [],
      "name": "getVoterId",
      "outputs": [
        {
          "internalType": "string[]",
          "name": "",
          "type": "string[]"
        }
      ],
      "stateMutability": "view",
      "type": "function",
      "constant": true
    },
    {
      "inputs": [
        {
          "internalType": "address",
          "name": "_address",
          "type": "address"
        }
      ],
      "name": "verifyVoter",
      "outputs": [],
      "stateMutability": "nonpayable",
      "type": "function"
    },
    {
      "inputs": [
        {
          "internalType": "uint256",
          "name": "candidateId",
          "type": "uint256"
        },
        {
          "internalType": "address",
          "name": "ethAddress",
          "type": "address"
        }
      ],
      "name": "vote",
      "outputs": [],
      "stateMutability": "nonpayable",
      "type": "function"
    },
    {
      "inputs": [],
      "name": "startElection",
      "outputs": [],
      "stateMutability": "nonpayable",
      "type": "function"
    },
    {
      "inputs": [],
      "name": "endElection",
      "outputs": [],
      "stateMutability": "nonpayable",
      "type": "function"
    },
    {
      "inputs": [],
      "name": "getStart",
      "outputs": [
        {
          "internalType": "bool",
          "name": "",
          "type": "bool"
        }
      ],
      "stateMutability": "view",
      "type": "function",
      "constant": true
    },
    {
      "inputs": [],
      "name": "getEnd",
      "outputs": [
        {
          "internalType": "bool",
          "name": "",
          "type": "bool"
        }
      ],
      "stateMutability": "view",
      "type": "function",
      "constant": true
    }
  ],
  "bytecode": "0x608060405234801561001057600080fd5b5061192c806100206000396000f3fe608060405234801561001057600080fd5b50600436106101215760003560e01c80636247e532116100ad5780639f05a36d116100715780639f05a36d146102d5578063b1e7a1f0146102f3578063c5292c6714610323578063da58c7d914610341578063e7b3387c1461037157610121565b80636247e5321461024057806362d73eb814610273578063893d20e81461027d5780638da5cb5b1461029b57806391a1900b146102b957610121565b806335b8e820116100f457806335b8e8201461019857806343ab1bae146101c85780634fc8a20d146101d25780635938750d1461020257806359f784681461023657610121565b8063027098f71461012657806302d947ef1461014457806309bd09501461016057806326541b561461017c575b600080fd5b61012e61038f565b60405161013b919061106f565b60405180910390f35b61015e60048036038101906101599190611139565b610468565b005b61017a60048036038101906101759190611179565b610555565b005b610196600480360381019061019191906112db565b6105b3565b005b6101b260048036038101906101ad9190611353565b610651565b6040516101bf919061138f565b60405180910390f35b6101d0610671565b005b6101ec60048036038101906101e79190611353565b6106f1565b6040516101f991906113f4565b60405180910390f35b61021c60048036038101906102179190611179565b61079d565b60405161022d959493929190611440565b60405180910390f35b61023e61091d565b005b61025a60048036038101906102559190611353565b610954565b60405161026a94939291906114a1565b60405180910390f35b61027b610a94565b005b610285610acb565b60405161029291906114f4565b60405180910390f35b6102a3610af5565b6040516102b091906114f4565b60405180910390f35b6102d360048036038101906102ce919061150f565b610b1b565b005b6102dd610d2b565b6040516102ea919061159a565b60405180910390f35b61030d60048036038101906103089190611353565b610d42565b60405161031a91906113f4565b60405180910390f35b61032b610dee565b604051610338919061159a565b60405180910390f35b61035b60048036038101906103569190611353565b610e05565b60405161036891906114f4565b60405180910390f35b610379610e44565b604051610386919061106f565b60405180910390f35b60606005805480602002602001604051908101604052809291908181526020016000905b8282101561045f5783829060005260206000200180546103d2906115e4565b80601f01602080910402602001604051908101604052809291908181526020018280546103fe906115e4565b801561044b5780601f106104205761010080835404028352916020019161044b565b820191906000526020600020905b81548152906001019060200180831161042e57829003601f168201915b5050505050815260200190600101906103b3565b50505050905090565b60001515600660008373ffffffffffffffffffffffffffffffffffffffff1673ffffffffffffffffffffffffffffffffffffffff16815260200190815260200160002060030160009054906101000a900460ff161515146104c857600080fd5b60016002600084815260200190815260200160002060020160008282546104ef9190611644565b925050819055506001600660008373ffffffffffffffffffffffffffffffffffffffff1673ffffffffffffffffffffffffffffffffffffffff16815260200190815260200160002060030160006101000a81548160ff0219169083151502179055505050565b6001600660008373ffffffffffffffffffffffffffffffffffffffff1673ffffffffffffffffffffffffffffffffffffffff16815260200190815260200160002060030160016101000a81548160ff02191690831515021790555050565b6000604051806080016040528084815260200183815260200160008152602001600054815250905080600260008054815260200190815260200160002060008201518160000190816106059190611824565b50602082015181600101908161061b9190611824565b50604082015181600201556060820151816003015590505060016000808282546106459190611644565b92505081905550505050565b600060026000838152602001908152602001600020600201549050919050565b33600160006101000a81548173ffffffffffffffffffffffffffffffffffffffff021916908373ffffffffffffffffffffffffffffffffffffffff160217905550600080819055506000600160146101000a81548160ff0219169083151502179055506000600160156101000a81548160ff021916908315150217905550565b6004818154811061070157600080fd5b90600052602060002001600091509050805461071c906115e4565b80601f0160208091040260200160405190810160405280929190818152602001828054610748906115e4565b80156107955780601f1061076a57610100808354040283529160200191610795565b820191906000526020600020905b81548152906001019060200180831161077857829003601f168201915b505050505081565b60066020528060005260406000206000915090508060000180546107c0906115e4565b80601f01602080910402602001604051908101604052809291908181526020018280546107ec906115e4565b80156108395780601f1061080e57610100808354040283529160200191610839565b820191906000526020600020905b81548152906001019060200180831161081c57829003601f168201915b5050505050908060010160009054906101000a900473ffffffffffffffffffffffffffffffffffffffff1690806002018054610874906115e4565b80601f01602080910402602001604051908101604052809291908181526020018280546108a0906115e4565b80156108ed5780601f106108c2576101008083540402835291602001916108ed565b820191906000526020600020905b8154815290600101906020018083116108d057829003601f168201915b5050505050908060030160009054906101000a900460ff16908060030160019054906101000a900460ff16905085565b60018060156101000a81548160ff0219169083151502179055506000600160146101000a81548160ff021916908315150217905550565b6002602052806000526040600020600091509050806000018054610977906115e4565b80601f01602080910402602001604051908101604052809291908181526020018280546109a3906115e4565b80156109f05780601f106109c5576101008083540402835291602001916109f0565b820191906000526020600020905b8154815290600101906020018083116109d357829003601f168201915b505050505090806001018054610a05906115e4565b80601f0160208091040260200160405190810160405280929190818152602001828054610a31906115e4565b8015610a7e5780601f10610a5357610100808354040283529160200191610a7e565b820191906000526020600020905b815481529060010190602001808311610a6157829003601f168201915b5050505050908060020154908060030154905084565b60018060146101000a81548160ff0219169083151502179055506000600160156101000a81548160ff021916908315150217905550565b6000600160009054906101000a900473ffffffffffffffffffffffffffffffffffffffff16905090565b600160009054906101000a900473ffffffffffffffffffffffffffffffffffffffff1681565b60006040518060a001604052808581526020018473ffffffffffffffffffffffffffffffffffffffff16815260200183815260200160001515815260200160001515815250905080600660008573ffffffffffffffffffffffffffffffffffffffff1673ffffffffffffffffffffffffffffffffffffffff1681526020019081526020016000206000820151816000019081610bb79190611824565b5060208201518160010160006101000a81548173ffffffffffffffffffffffffffffffffffffffff021916908373ffffffffffffffffffffffffffffffffffffffff1602179055506040820151816002019081610c149190611824565b5060608201518160030160006101000a81548160ff02191690831515021790555060808201518160030160016101000a81548160ff0219169083151502179055509050506003839080600181540180825580915050600190039060005260206000200160009091909190916101000a81548173ffffffffffffffffffffffffffffffffffffffff021916908373ffffffffffffffffffffffffffffffffffffffff160217905550600482908060018154018082558091505060019003906000526020600020016000909190919091509081610cef9190611824565b50600584908060018154018082558091505060019003906000526020600020016000909190919091509081610d249190611824565b5050505050565b6000600160159054906101000a900460ff16905090565b60058181548110610d5257600080fd5b906000526020600020016000915090508054610d6d906115e4565b80601f0160208091040260200160405190810160405280929190818152602001828054610d99906115e4565b8015610de65780601f10610dbb57610100808354040283529160200191610de6565b820191906000526020600020905b815481529060010190602001808311610dc957829003601f168201915b505050505081565b6000600160149054906101000a900460ff16905090565b60038181548110610e1557600080fd5b906000526020600020016000915054906101000a900473ffffffffffffffffffffffffffffffffffffffff1681565b60606004805480602002602001604051908101604052809291908181526020016000905b82821015610f14578382906000526020600020018054610e87906115e4565b80601f0160208091040260200160405190810160405280929190818152602001828054610eb3906115e4565b8015610f005780601f10610ed557610100808354040283529160200191610f00565b820191906000526020600020905b815481529060010190602001808311610ee357829003601f168201915b505050505081526020019060010190610e68565b50505050905090565b600081519050919050565b600082825260208201905092915050565b6000819050602082019050919050565b600081519050919050565b600082825260208201905092915050565b60005b83811015610f83578082015181840152602081019050610f68565b60008484015250505050565b6000601f19601f8301169050919050565b6000610fab82610f49565b610fb58185610f54565b9350610fc5818560208601610f65565b610fce81610f8f565b840191505092915050565b6000610fe58383610fa0565b905092915050565b6000602082019050919050565b600061100582610f1d565b61100f8185610f28565b93508360208202850161102185610f39565b8060005b8581101561105d578484038952815161103e8582610fd9565b945061104983610fed565b925060208a01995050600181019050611025565b50829750879550505050505092915050565b600060208201905081810360008301526110898184610ffa565b905092915050565b6000604051905090565b600080fd5b600080fd5b6000819050919050565b6110b8816110a5565b81146110c357600080fd5b50565b6000813590506110d5816110af565b92915050565b600073ffffffffffffffffffffffffffffffffffffffff82169050919050565b6000611106826110db565b9050919050565b611116816110fb565b811461112157600080fd5b50565b6000813590506111338161110d565b92915050565b600080604083850312156111505761114f61109b565b5b600061115e858286016110c6565b925050602061116f85828601611124565b9150509250929050565b60006020828403121561118f5761118e61109b565b5b600061119d84828501611124565b91505092915050565b600080fd5b600080fd5b7f4e487b7100000000000000000000000000000000000000000000000000000000600052604160045260246000fd5b6111e882610f8f565b810181811067ffffffffffffffff82111715611207576112066111b0565b5b80604052505050565b600061121a611091565b905061122682826111df565b919050565b600067ffffffffffffffff821115611246576112456111b0565b5b61124f82610f8f565b9050602081019050919050565b82818337600083830152505050565b600061127e6112798461122b565b611210565b90508281526020810184848401111561129a576112996111ab565b5b6112a584828561125c565b509392505050565b600082601f8301126112c2576112c16111a6565b5b81356112d284826020860161126b565b91505092915050565b600080604083850312156112f2576112f161109b565b5b600083013567ffffffffffffffff8111156113105761130f6110a0565b5b61131c858286016112ad565b925050602083013567ffffffffffffffff81111561133d5761133c6110a0565b5b611349858286016112ad565b9150509250929050565b6000602082840312156113695761136861109b565b5b6000611377848285016110c6565b91505092915050565b611389816110a5565b82525050565b60006020820190506113a46000830184611380565b92915050565b600082825260208201905092915050565b60006113c682610f49565b6113d081856113aa565b93506113e0818560208601610f65565b6113e981610f8f565b840191505092915050565b6000602082019050818103600083015261140e81846113bb565b905092915050565b61141f816110fb565b82525050565b60008115159050919050565b61143a81611425565b82525050565b600060a082019050818103600083015261145a81886113bb565b90506114696020830187611416565b818103604083015261147b81866113bb565b905061148a6060830185611431565b6114976080830184611431565b9695505050505050565b600060808201905081810360008301526114bb81876113bb565b905081810360208301526114cf81866113bb565b90506114de6040830185611380565b6114eb6060830184611380565b95945050505050565b60006020820190506115096000830184611416565b92915050565b6000806000606084860312156115285761152761109b565b5b600084013567ffffffffffffffff811115611546576115456110a0565b5b611552868287016112ad565b935050602061156386828701611124565b925050604084013567ffffffffffffffff811115611584576115836110a0565b5b611590868287016112ad565b9150509250925092565b60006020820190506115af6000830184611431565b92915050565b7f4e487b7100000000000000000000000000000000000000000000000000000000600052602260045260246000fd5b600060028204905060018216806115fc57607f821691505b60208210810361160f5761160e6115b5565b5b50919050565b7f4e487b7100000000000000000000000000000000000000000000000000000000600052601160045260246000fd5b600061164f826110a5565b915061165a836110a5565b925082820190508082111561167257611671611615565b5b92915050565b60008190508160005260206000209050919050565b60006020601f8301049050919050565b600082821b905092915050565b6000600883026116da7fffffffffffffffffffffffffffffffffffffffffffffffffffffffffffffffff8261169d565b6116e4868361169d565b95508019841693508086168417925050509392505050565b6000819050919050565b600061172161171c611717846110a5565b6116fc565b6110a5565b9050919050565b6000819050919050565b61173b83611706565b61174f61174782611728565b8484546116aa565b825550505050565b600090565b611764611757565b61176f818484611732565b505050565b5b818110156117935761178860008261175c565b600181019050611775565b5050565b601f8211156117d8576117a981611678565b6117b28461168d565b810160208510156117c1578190505b6117d56117cd8561168d565b830182611774565b50505b505050565b600082821c905092915050565b60006117fb600019846008026117dd565b1980831691505092915050565b600061181483836117ea565b9150826002028217905092915050565b61182d82610f49565b67ffffffffffffffff811115611846576118456111b0565b5b61185082546115e4565b61185b828285611797565b600060209050601f83116001811461188e576000841561187c578287015190505b6118868582611808565b8655506118ee565b601f19841661189c86611678565b60005b828110156118c45784890151825560018201915060208501945060208101905061189f565b868310156118e157848901516118dd601f8916826117ea565b8355505b6001600288020188555050505b50505050505056fea26469706673582212202213368fdcf0d9c73a05bc0faa420105e486adb45d4cba3cf16d3ac19c9803ed64736f6c63430008110033",
  "immutableReferences": {},
  "source": "pragma solidity ^0.8.17;\r\ncontract modifiedVotingSystem {\r\n\r\nuint candidateCount;\r\naddress public owner;\r\nbool start;\r\nbool end;\r\n\r\n// Constructor\r\nfunction VotingSystem() public {\r\n   owner=msg.sender;\r\n   candidateCount = 0;\r\n   start=false;\r\n   end=false;\r\n}\r\n\r\nfunction getOwner() public view returns(address) {\r\n   return owner;\r\n}\r\n\r\n// Only Admin can access\r\nmodifier onlyAdmin() {\r\n   require(msg.sender == owner);\r\n   _;\r\n}\r\n\r\nstruct Candidate{\r\n   string name;\r\n   string party;\r\n   uint voteCount;\r\n   uint candidateId;\r\n}\r\nmapping(uint => Candidate) public candidateDetails;\r\n\r\nfunction addCandidate(string memory _name, string memory _party) public  {\r\n   Candidate memory newCandidate = Candidate({\r\n     name : _name,\r\n     party : _party,\r\n     voteCount : 0,\r\n     candidateId : candidateCount\r\n   });\r\n   candidateDetails[candidateCount] = newCandidate;\r\n   candidateCount += 1;\r\n}\r\n\r\nfunction getCandidate(uint candidateNo) public view returns (uint) {\r\n   return candidateDetails[candidateNo].voteCount;\r\n}\r\n\r\n\r\n\r\nstruct Voter{\r\n   string voterId;\r\n   address ethAddress;\r\n   string candidateVotedTo;\r\n   bool hasVoted;\r\n   bool isVerified;\r\n}\r\naddress[] public voters;\r\nstring[] public voteCount;\r\nstring[] public alreadyVoted;\r\nmapping(address => Voter) public voterDetails;\r\n// request to be added as voter\r\nfunction requestVoter(string  memory _id, address _ethAddress,string memory _candidate) public {\r\n   Voter memory newVoter = Voter({\r\n     voterId : _id,\r\n     ethAddress : _ethAddress,\r\n     candidateVotedTo: _candidate,\r\n     hasVoted : false,\r\n     isVerified : false\r\n   });\r\n   voterDetails[_ethAddress] = newVoter;\r\n   voters.push(_ethAddress);\r\n   voteCount.push(_candidate);\r\n   alreadyVoted.push(_id);\r\n}\r\n\r\nfunction getVoteCount() public view returns(string[] memory){\r\n   return voteCount;\r\n}\r\n\r\nfunction getVoterId() public view returns(string[] memory){\r\n   return alreadyVoted;\r\n}\r\n\r\nfunction verifyVoter(address _address) public {\r\n   voterDetails[_address].isVerified = true;\r\n}\r\nfunction vote(uint candidateId, address ethAddress) public {\r\n   require(voterDetails[ethAddress].hasVoted == false);\r\n   candidateDetails[candidateId].voteCount+=1;\r\n   voterDetails[ethAddress].hasVoted = true;\r\n}\r\n\r\nfunction startElection() public {\r\n   start = true;\r\n   end = false;\r\n}\r\nfunction endElection() public {\r\n   end = true;\r\n   start = false;\r\n}\r\nfunction getStart() public view returns (bool) {\r\n   return start;\r\n}\r\nfunction getEnd() public view returns (bool) {\r\n   return end;\r\n}\r\n}",
  "sourcePath": "C:\\Users\\Amita Pandey\\Desktop\\FinalYearProjectModifiedFinalProjectEvaluation_27thMay\\contracts\\modifiedVotingSystem.sol",
  "compiler": {
    "name": "solc",
    "version": "0.8.17+commit.8df45f5f.Emscripten.clang"
  },
  "schemaVersion": "3.4.11",
  "updatedAt": "2023-05-24T04:28:23.497Z",
  "networkType": "ethereum",
  "devdoc": {
    "kind": "dev",
    "methods": {},
    "version": 1
  },
  "userdoc": {
    "kind": "user",
    "methods": {},
    "version": 1
  }
}